{
  "address": "0x95401dc811bb5740090279Ba06cfA8fcF6113778",
  "abi": [
    {
      "inputs": [
        {
          "internalType": "contract IEntryPoint",
          "name": "_entryPoint",
          "type": "address"
        }
      ],
      "stateMutability": "nonpayable",
      "type": "constructor"
    },
    {
      "inputs": [],
      "name": "accountImplementation",
      "outputs": [
        {
          "internalType": "contract TwoOwnerAccount",
          "name": "",
          "type": "address"
        }
      ],
      "stateMutability": "view",
      "type": "function"
    },
    {
      "inputs": [
        {
          "internalType": "address",
          "name": "_ownerOne",
          "type": "address"
        },
        {
          "internalType": "address",
          "name": "_ownerTwo",
          "type": "address"
        },
        {
          "internalType": "uint256",
          "name": "salt",
          "type": "uint256"
        }
      ],
      "name": "createAccount",
      "outputs": [
        {
          "internalType": "contract TwoOwnerAccount",
          "name": "ret",
          "type": "address"
        }
      ],
      "stateMutability": "nonpayable",
      "type": "function"
    },
    {
      "inputs": [
        {
          "internalType": "address",
          "name": "_ownerOne",
          "type": "address"
        },
        {
          "internalType": "address",
          "name": "_ownerTwo",
          "type": "address"
        },
        {
          "internalType": "uint256",
          "name": "salt",
          "type": "uint256"
        }
      ],
      "name": "getAddress",
      "outputs": [
        {
          "internalType": "address",
          "name": "",
          "type": "address"
        }
      ],
      "stateMutability": "view",
      "type": "function"
    }
  ],
  "transactionHash": "0xc366ee7cdfe75dfe046112a6af6d68d9cb6826c68a18f2d8d59a1847238b3706",
  "args": [
    "0x1835bc5477D6420bD33A27a0c1d7dB8c3B9b1727"
  ],
  "numDeployments": 11,
  "solcInputHash": "b97e8d7de91f9bc33cf4c515fb1c6dbe",
  "bytecode": "0x60a06040523480156200001157600080fd5b50604051620051eb380380620051eb833981810160405281019062000037919062000136565b806040516200004690620000aa565b620000529190620001d3565b604051809103906000f0801580156200006f573d6000803e3d6000fd5b5073ffffffffffffffffffffffffffffffffffffffff1660808173ffffffffffffffffffffffffffffffffffffffff168152505050620001f0565b613a4280620017a983390190565b600080fd5b600073ffffffffffffffffffffffffffffffffffffffff82169050919050565b6000620000ea82620000bd565b9050919050565b6000620000fe82620000dd565b9050919050565b6200011081620000f1565b81146200011c57600080fd5b50565b600081519050620001308162000105565b92915050565b6000602082840312156200014f576200014e620000b8565b5b60006200015f848285016200011f565b91505092915050565b6000819050919050565b6000620001936200018d6200018784620000bd565b62000168565b620000bd565b9050919050565b6000620001a78262000172565b9050919050565b6000620001bb826200019a565b9050919050565b620001cd81620001ae565b82525050565b6000602082019050620001ea6000830184620001c2565b92915050565b60805161158f6200021a6000396000818161010b015281816101e0015261028c015261158f6000f3fe60806040523480156200001157600080fd5b5060043610620000465760003560e01c806308a6354e146200004b57806311464fbe14620000815780631230aea214620000a3575b600080fd5b620000696004803603810190620000639190620005f1565b620000d9565b6040516200007891906200065e565b60405180910390f35b6200008b620001de565b6040516200009a9190620006e6565b60405180910390f35b620000c16004803603810190620000bb9190620005f1565b62000202565b604051620000d09190620006e6565b60405180910390f35b6000620001d58260001b60405180602001620000f5906200053e565b6020820181038252601f19601f820116604052507f000000000000000000000000000000000000000000000000000000000000000087876040516024016200013f92919062000703565b60405160208183030381529060405263485cc95560e01b6020820180517bffffffffffffffffffffffffffffffffffffffffffffffffffffffff838183161783525050505060405160200162000197929190620007d4565b604051602081830303815290604052604051602001620001b99291906200084a565b6040516020818303038152906040528051906020012062000399565b90509392505050565b7f000000000000000000000000000000000000000000000000000000000000000081565b6000620002446040518060400160405280601781526020017f4c65747320736565206966207765206172652068657265000000000000000000815250620003b0565b600062000253858585620000d9565b905060008173ffffffffffffffffffffffffffffffffffffffff163b905060008111156200028657819250505062000392565b8360001b7f00000000000000000000000000000000000000000000000000000000000000008787604051602401620002c092919062000703565b60405160208183030381529060405263485cc95560e01b6020820180517bffffffffffffffffffffffffffffffffffffffffffffffffffffffff838183161783525050505060405162000313906200053e565b62000320929190620007d4565b8190604051809103906000f590508015801562000341573d6000803e3d6000fd5b509250620003846040518060400160405280600f81526020017f5765206465706c6f7965642069743f0000000000000000000000000000000000815250620003b0565b6200038f836200044d565b50505b9392505050565b6000620003a8838330620004ea565b905092915050565b6200044a81604051602401620003c79190620008cf565b6040516020818303038152906040527f41304fac000000000000000000000000000000000000000000000000000000007bffffffffffffffffffffffffffffffffffffffffffffffffffffffff19166020820180517bffffffffffffffffffffffffffffffffffffffffffffffffffffffff838183161783525050505062000515565b50565b620004e7816040516024016200046491906200065e565b6040516020818303038152906040527f2c2ecbc2000000000000000000000000000000000000000000000000000000007bffffffffffffffffffffffffffffffffffffffffffffffffffffffff19166020820180517bffffffffffffffffffffffffffffffffffffffffffffffffffffffff838183161783525050505062000515565b50565b6000604051836040820152846020820152828152600b810160ff815360558120925050509392505050565b60008151905060006a636f6e736f6c652e6c6f679050602083016000808483855afa5050505050565b610c6680620008f483390190565b600080fd5b600073ffffffffffffffffffffffffffffffffffffffff82169050919050565b60006200057e8262000551565b9050919050565b620005908162000571565b81146200059c57600080fd5b50565b600081359050620005b08162000585565b92915050565b6000819050919050565b620005cb81620005b6565b8114620005d757600080fd5b50565b600081359050620005eb81620005c0565b92915050565b6000806000606084860312156200060d576200060c6200054c565b5b60006200061d868287016200059f565b935050602062000630868287016200059f565b92505060406200064386828701620005da565b9150509250925092565b620006588162000571565b82525050565b60006020820190506200067560008301846200064d565b92915050565b6000819050919050565b6000620006a6620006a06200069a8462000551565b6200067b565b62000551565b9050919050565b6000620006ba8262000685565b9050919050565b6000620006ce82620006ad565b9050919050565b620006e081620006c1565b82525050565b6000602082019050620006fd6000830184620006d5565b92915050565b60006040820190506200071a60008301856200064d565b6200072960208301846200064d565b9392505050565b600081519050919050565b600082825260208201905092915050565b60005b838110156200076c5780820151818401526020810190506200074f565b838111156200077c576000848401525b50505050565b6000601f19601f8301169050919050565b6000620007a08262000730565b620007ac81856200073b565b9350620007be8185602086016200074c565b620007c98162000782565b840191505092915050565b6000604082019050620007eb60008301856200064d565b8181036020830152620007ff818462000793565b90509392505050565b600081905092915050565b6000620008208262000730565b6200082c818562000808565b93506200083e8185602086016200074c565b80840191505092915050565b600062000858828562000813565b915062000866828462000813565b91508190509392505050565b600081519050919050565b600082825260208201905092915050565b60006200089b8262000872565b620008a781856200087d565b9350620008b98185602086016200074c565b620008c48162000782565b840191505092915050565b60006020820190508181036000830152620008eb81846200088e565b90509291505056fe608060405260405162000c6638038062000c6683398181016040528101906200002991906200058b565b6200003d828260006200004560201b60201c565b5050620007e2565b62000056836200008860201b60201c565b600082511180620000645750805b156200008357620000818383620000df60201b620000371760201c565b505b505050565b62000099816200011560201b60201c565b8073ffffffffffffffffffffffffffffffffffffffff167fbc7cd75a20ee27fd9adebab32041f755214dbc6bffa90cc0225b39da2e5c2d3b60405160405180910390a250565b60606200010d838360405180606001604052806027815260200162000c3f60279139620001eb60201b60201c565b905092915050565b6200012b816200027d60201b620000641760201c565b6200016d576040517f08c379a0000000000000000000000000000000000000000000000000000000008152600401620001649062000678565b60405180910390fd5b80620001a77f360894a13ba1a3210667c828492db98dca3e2076cc3735a920a3ca505d382bbc60001b620002a060201b620000871760201c565b60000160006101000a81548173ffffffffffffffffffffffffffffffffffffffff021916908373ffffffffffffffffffffffffffffffffffffffff16021790555050565b60606000808573ffffffffffffffffffffffffffffffffffffffff1685604051620002179190620006e7565b600060405180830381855af49150503d806000811462000254576040519150601f19603f3d011682016040523d82523d6000602084013e62000259565b606091505b50915091506200027286838387620002aa60201b60201c565b925050509392505050565b6000808273ffffffffffffffffffffffffffffffffffffffff163b119050919050565b6000819050919050565b606083156200031b576000835114156200031257620002cf856200027d60201b60201c565b62000311576040517f08c379a0000000000000000000000000000000000000000000000000000000008152600401620003089062000750565b60405180910390fd5b5b8290506200032e565b6200032d83836200033660201b60201c565b5b949350505050565b6000825111156200034a5781518083602001fd5b806040517f08c379a0000000000000000000000000000000000000000000000000000000008152600401620003809190620007be565b60405180910390fd5b6000604051905090565b600080fd5b600080fd5b600073ffffffffffffffffffffffffffffffffffffffff82169050919050565b6000620003ca826200039d565b9050919050565b620003dc81620003bd565b8114620003e857600080fd5b50565b600081519050620003fc81620003d1565b92915050565b600080fd5b600080fd5b6000601f19601f8301169050919050565b7f4e487b7100000000000000000000000000000000000000000000000000000000600052604160045260246000fd5b62000457826200040c565b810181811067ffffffffffffffff821117156200047957620004786200041d565b5b80604052505050565b60006200048e62000389565b90506200049c82826200044c565b919050565b600067ffffffffffffffff821115620004bf57620004be6200041d565b5b620004ca826200040c565b9050602081019050919050565b60005b83811015620004f7578082015181840152602081019050620004da565b8381111562000507576000848401525b50505050565b6000620005246200051e84620004a1565b62000482565b90508281526020810184848401111562000543576200054262000407565b5b62000550848285620004d7565b509392505050565b600082601f83011262000570576200056f62000402565b5b8151620005828482602086016200050d565b91505092915050565b60008060408385031215620005a557620005a462000393565b5b6000620005b585828601620003eb565b925050602083015167ffffffffffffffff811115620005d957620005d862000398565b5b620005e78582860162000558565b9150509250929050565b600082825260208201905092915050565b7f455243313936373a206e657720696d706c656d656e746174696f6e206973206e60008201527f6f74206120636f6e747261637400000000000000000000000000000000000000602082015250565b600062000660602d83620005f1565b91506200066d8262000602565b604082019050919050565b60006020820190508181036000830152620006938162000651565b9050919050565b600081519050919050565b600081905092915050565b6000620006bd826200069a565b620006c98185620006a5565b9350620006db818560208601620004d7565b80840191505092915050565b6000620006f58284620006b0565b915081905092915050565b7f416464726573733a2063616c6c20746f206e6f6e2d636f6e7472616374000000600082015250565b600062000738601d83620005f1565b9150620007458262000700565b602082019050919050565b600060208201905081810360008301526200076b8162000729565b9050919050565b600081519050919050565b60006200078a8262000772565b620007968185620005f1565b9350620007a8818560208601620004d7565b620007b3816200040c565b840191505092915050565b60006020820190508181036000830152620007da81846200077d565b905092915050565b61044d80620007f26000396000f3fe6080604052366100135761001161001d565b005b61001b61001d565b005b610025610091565b610035610030610093565b6100a2565b565b606061005c83836040518060600160405280602781526020016103f1602791396100c8565b905092915050565b6000808273ffffffffffffffffffffffffffffffffffffffff163b119050919050565b6000819050919050565b565b600061009d61014e565b905090565b3660008037600080366000845af43d6000803e80600081146100c3573d6000f35b3d6000fd5b60606000808573ffffffffffffffffffffffffffffffffffffffff16856040516100f291906102e5565b600060405180830381855af49150503d806000811461012d576040519150601f19603f3d011682016040523d82523d6000602084013e610132565b606091505b5091509150610143868383876101a5565b925050509392505050565b600061017c7f360894a13ba1a3210667c828492db98dca3e2076cc3735a920a3ca505d382bbc60001b610087565b60000160009054906101000a900473ffffffffffffffffffffffffffffffffffffffff16905090565b6060831561020857600083511415610200576101c085610064565b6101ff576040517f08c379a00000000000000000000000000000000000000000000000000000000081526004016101f690610359565b60405180910390fd5b5b829050610213565b610212838361021b565b5b949350505050565b60008251111561022e5781518083602001fd5b806040517f08c379a000000000000000000000000000000000000000000000000000000000815260040161026291906103ce565b60405180910390fd5b600081519050919050565b600081905092915050565b60005b8381101561029f578082015181840152602081019050610284565b838111156102ae576000848401525b50505050565b60006102bf8261026b565b6102c98185610276565b93506102d9818560208601610281565b80840191505092915050565b60006102f182846102b4565b915081905092915050565b600082825260208201905092915050565b7f416464726573733a2063616c6c20746f206e6f6e2d636f6e7472616374000000600082015250565b6000610343601d836102fc565b915061034e8261030d565b602082019050919050565b6000602082019050818103600083015261037281610336565b9050919050565b600081519050919050565b6000601f19601f8301169050919050565b60006103a082610379565b6103aa81856102fc565b93506103ba818560208601610281565b6103c381610384565b840191505092915050565b600060208201905081810360008301526103e88184610395565b90509291505056fe416464726573733a206c6f772d6c6576656c2064656c65676174652063616c6c206661696c6564a2646970667358221220e8f120fdd8eb5304fb490011162f3d0358b3af306a024fb3263820c5ff85f56164736f6c634300080c0033416464726573733a206c6f772d6c6576656c2064656c65676174652063616c6c206661696c6564a264697066735822122000c510ac97e0c84c9d6f76aa1dac22a86f82e0cdff92537fbc3f23623ae96b8c64736f6c634300080c003360c06040523073ffffffffffffffffffffffffffffffffffffffff1660809073ffffffffffffffffffffffffffffffffffffffff168152503480156200004457600080fd5b5060405162003a4238038062003a4283398181016040528101906200006a9190620001fc565b808073ffffffffffffffffffffffffffffffffffffffff1660a08173ffffffffffffffffffffffffffffffffffffffff1681525050620000af620000b760201b60201c565b505062000312565b600060019054906101000a900460ff16156200010a576040517f08c379a00000000000000000000000000000000000000000000000000000000081526004016200010190620002b5565b60405180910390fd5b60ff801660008054906101000a900460ff1660ff1610156200017c5760ff6000806101000a81548160ff021916908360ff1602179055507f7f26b83ff96e1f2b6a682f133852f6798a09c465da95921460cefb384740249860ff604051620001739190620002f5565b60405180910390a15b565b600080fd5b600073ffffffffffffffffffffffffffffffffffffffff82169050919050565b6000620001b08262000183565b9050919050565b6000620001c482620001a3565b9050919050565b620001d681620001b7565b8114620001e257600080fd5b50565b600081519050620001f681620001cb565b92915050565b6000602082840312156200021557620002146200017e565b5b60006200022584828501620001e5565b91505092915050565b600082825260208201905092915050565b7f496e697469616c697a61626c653a20636f6e747261637420697320696e69746960008201527f616c697a696e6700000000000000000000000000000000000000000000000000602082015250565b60006200029d6027836200022e565b9150620002aa826200023f565b604082019050919050565b60006020820190508181036000830152620002d0816200028e565b9050919050565b600060ff82169050919050565b620002ef81620002d7565b82525050565b60006020820190506200030c6000830184620002e4565b92915050565b60805160a0516136e76200035b60003960008181610dc201526119a10152600081816106c20152818161075101528181610b4e01528181610bdd0152610c8d01526136e76000f3fe60806040526004361061010d5760003560e01c806383aa998511610095578063b61d27f611610064578063b61d27f614610334578063c399ec881461035d578063c4d66de814610388578063f0664a4f146103b1578063f0938ee1146103dc57610114565b806383aa9985146102885780638da5cb5b146102b3578063affed0e0146102de578063b0d691fe1461030957610114565b8063485cc955116100dc578063485cc955146101e55780634a58db191461020e5780634d44560d146102185780634f1ef2861461024157806352d1902d1461025d57610114565b806318dfb3c71461011957806319ae901f146101425780633659cfe61461017f5780633a871cdd146101a857610114565b3661011457005b600080fd5b34801561012557600080fd5b50610140600480360381019061013b9190612129565b610419565b005b34801561014e57600080fd5b5061016960048036038101906101649190612321565b61052b565b6040516101769190612396565b60405180910390f35b34801561018b57600080fd5b506101a660048036038101906101a1919061240f565b6106c0565b005b3480156101b457600080fd5b506101cf60048036038101906101ca919061248d565b610849565b6040516101dc9190612396565b60405180910390f35b3480156101f157600080fd5b5061020c600480360381019061020791906124fc565b610893565b005b610216610a57565b005b34801561022457600080fd5b5061023f600480360381019061023a919061257a565b610acc565b005b61025b600480360381019061025691906125ba565b610b4c565b005b34801561026957600080fd5b50610272610c89565b60405161027f9190612625565b60405180910390f35b34801561029457600080fd5b5061029d610d42565b6040516102aa919061264f565b60405180910390f35b3480156102bf57600080fd5b506102c8610d68565b6040516102d5919061264f565b60405180910390f35b3480156102ea57600080fd5b506102f3610d8e565b6040516103009190612396565b60405180910390f35b34801561031557600080fd5b5061031e610dbe565b60405161032b91906126c9565b60405180910390f35b34801561034057600080fd5b5061035b6004803603810190610356919061273a565b610de6565b005b34801561036957600080fd5b50610372610e43565b60405161037f9190612396565b60405180910390f35b34801561039457600080fd5b506103af60048036038101906103aa919061240f565b610ecb565b005b3480156103bd57600080fd5b506103c661100b565b6040516103d3919061264f565b60405180910390f35b3480156103e857600080fd5b5061040360048036038101906103fe91906127ae565b611031565b60405161041091906128ae565b60405180910390f35b61042161105d565b818190508484905014610469576040517f08c379a00000000000000000000000000000000000000000000000000000000081526004016104609061292d565b60405180910390fd5b60005b848490508110156105245761051185858381811061048d5761048c61294d565b5b90506020020160208101906104a2919061240f565b60008585858181106104b7576104b661294d565b5b90506020028101906104c9919061298b565b8080601f016020809104026020016040519081016040528093929190818152602001838380828437600081840152601f19601f8201169050808301925050505050505061112c565b808061051c90612a1d565b91505061046c565b5050505050565b600061056b6040518060400160405280600481526020017f48455245000000000000000000000000000000000000000000000000000000008152506111b0565b600061057683611249565b905061058183611279565b61058a81611279565b600080858060200190518101906105a19190612ad6565b9150915060006105ba838561131290919063ffffffff16565b905060006105d1838661131290919063ffffffff16565b90506105dc82611339565b6105e581611339565b60008273ffffffffffffffffffffffffffffffffffffffff16600260009054906101000a900473ffffffffffffffffffffffffffffffffffffffff1673ffffffffffffffffffffffffffffffffffffffff1614905060008273ffffffffffffffffffffffffffffffffffffffff16600360009054906101000a900473ffffffffffffffffffffffffffffffffffffffff1673ffffffffffffffffffffffffffffffffffffffff161490508180156106995750805b156106ae5760009750505050505050506106ba565b60019750505050505050505b92915050565b7f000000000000000000000000000000000000000000000000000000000000000073ffffffffffffffffffffffffffffffffffffffff163073ffffffffffffffffffffffffffffffffffffffff16141561074f576040517f08c379a000000000000000000000000000000000000000000000000000000000815260040161074690612bc0565b60405180910390fd5b7f000000000000000000000000000000000000000000000000000000000000000073ffffffffffffffffffffffffffffffffffffffff1661078e6113d2565b73ffffffffffffffffffffffffffffffffffffffff16146107e4576040517f08c379a00000000000000000000000000000000000000000000000000000000081526004016107db90612c52565b60405180910390fd5b6107ed81611429565b61084681600067ffffffffffffffff81111561080c5761080b6121c0565b5b6040519080825280601f01601f19166020018201604052801561083e5781602001600182028036833780820191505090505b506000611434565b50565b60006108536115a2565b61085d8484611619565b90506000848060400190610871919061298b565b9050141561088357610882846117b8565b5b61088c82611866565b9392505050565b60008060019054906101000a900460ff161590508080156108c45750600160008054906101000a900460ff1660ff16105b806108f157506108d330611902565b1580156108f05750600160008054906101000a900460ff1660ff16145b5b610930576040517f08c379a000000000000000000000000000000000000000000000000000000000815260040161092790612ce4565b60405180910390fd5b60016000806101000a81548160ff021916908360ff160217905550801561096d576001600060016101000a81548160ff0219169083151502179055505b6109776000611925565b82600260006101000a81548173ffffffffffffffffffffffffffffffffffffffff021916908373ffffffffffffffffffffffffffffffffffffffff16021790555081600360006101000a81548173ffffffffffffffffffffffffffffffffffffffff021916908373ffffffffffffffffffffffffffffffffffffffff1602179055508015610a525760008060016101000a81548160ff0219169083151502179055507f7f26b83ff96e1f2b6a682f133852f6798a09c465da95921460cefb38474024986001604051610a499190612d4c565b60405180910390a15b505050565b610a5f610dbe565b73ffffffffffffffffffffffffffffffffffffffff1663b760faf934306040518363ffffffff1660e01b8152600401610a98919061264f565b6000604051808303818588803b158015610ab157600080fd5b505af1158015610ac5573d6000803e3d6000fd5b5050505050565b610ad4611a05565b610adc610dbe565b73ffffffffffffffffffffffffffffffffffffffff1663205c287883836040518363ffffffff1660e01b8152600401610b16929190612d76565b600060405180830381600087803b158015610b3057600080fd5b505af1158015610b44573d6000803e3d6000fd5b505050505050565b7f000000000000000000000000000000000000000000000000000000000000000073ffffffffffffffffffffffffffffffffffffffff163073ffffffffffffffffffffffffffffffffffffffff161415610bdb576040517f08c379a0000000000000000000000000000000000000000000000000000000008152600401610bd290612bc0565b60405180910390fd5b7f000000000000000000000000000000000000000000000000000000000000000073ffffffffffffffffffffffffffffffffffffffff16610c1a6113d2565b73ffffffffffffffffffffffffffffffffffffffff1614610c70576040517f08c379a0000000000000000000000000000000000000000000000000000000008152600401610c6790612c52565b60405180910390fd5b610c7982611429565b610c8582826001611434565b5050565b60007f000000000000000000000000000000000000000000000000000000000000000073ffffffffffffffffffffffffffffffffffffffff163073ffffffffffffffffffffffffffffffffffffffff1614610d19576040517f08c379a0000000000000000000000000000000000000000000000000000000008152600401610d1090612e11565b60405180910390fd5b7f360894a13ba1a3210667c828492db98dca3e2076cc3735a920a3ca505d382bbc60001b905090565b600360009054906101000a900473ffffffffffffffffffffffffffffffffffffffff1681565b6001600c9054906101000a900473ffffffffffffffffffffffffffffffffffffffff1681565b6000600160009054906101000a90046bffffffffffffffffffffffff166bffffffffffffffffffffffff16905090565b60007f0000000000000000000000000000000000000000000000000000000000000000905090565b610dee61105d565b610e3d848484848080601f016020809104026020016040519081016040528093929190818152602001838380828437600081840152601f19601f8201169050808301925050505050505061112c565b50505050565b6000610e4d610dbe565b73ffffffffffffffffffffffffffffffffffffffff166370a08231306040518263ffffffff1660e01b8152600401610e85919061264f565b602060405180830381865afa158015610ea2573d6000803e3d6000fd5b505050506040513d601f19601f82011682018060405250810190610ec69190612e46565b905090565b60008060019054906101000a900460ff16159050808015610efc5750600160008054906101000a900460ff1660ff16105b80610f295750610f0b30611902565b158015610f285750600160008054906101000a900460ff1660ff16145b5b610f68576040517f08c379a0000000000000000000000000000000000000000000000000000000008152600401610f5f90612ce4565b60405180910390fd5b60016000806101000a81548160ff021916908360ff1602179055508015610fa5576001600060016101000a81548160ff0219169083151502179055505b610fae82611925565b80156110075760008060016101000a81548160ff0219169083151502179055507f7f26b83ff96e1f2b6a682f133852f6798a09c465da95921460cefb38474024986001604051610ffe9190612d4c565b60405180910390a15b5050565b600260009054906101000a900473ffffffffffffffffffffffffffffffffffffffff1681565b60608282604051602001611046929190612e73565b604051602081830303815290604052905092915050565b611065610dbe565b73ffffffffffffffffffffffffffffffffffffffff163373ffffffffffffffffffffffffffffffffffffffff1614806110eb57506001600c9054906101000a900473ffffffffffffffffffffffffffffffffffffffff1673ffffffffffffffffffffffffffffffffffffffff163373ffffffffffffffffffffffffffffffffffffffff16145b61112a576040517f08c379a000000000000000000000000000000000000000000000000000000000815260040161112190612ef6565b60405180910390fd5b565b6000808473ffffffffffffffffffffffffffffffffffffffff1684846040516111559190612f52565b60006040518083038185875af1925050503d8060008114611192576040519150601f19603f3d011682016040523d82523d6000602084013e611197565b606091505b5091509150816111a957805160208201fd5b5050505050565b611246816040516024016111c49190612fad565b6040516020818303038152906040527f41304fac000000000000000000000000000000000000000000000000000000007bffffffffffffffffffffffffffffffffffffffffffffffffffffffff19166020820180517bffffffffffffffffffffffffffffffffffffffffffffffffffffffff8381831617835250505050611acd565b50565b60008160405160200161125c9190613047565b604051602081830303815290604052805190602001209050919050565b61130f8160405160240161128d9190612625565b6040516020818303038152906040527f27b7cf85000000000000000000000000000000000000000000000000000000007bffffffffffffffffffffffffffffffffffffffffffffffffffffffff19166020820180517bffffffffffffffffffffffffffffffffffffffffffffffffffffffff8381831617835250505050611acd565b50565b60008060006113218585611af6565b9150915061132e81611b48565b819250505092915050565b6113cf8160405160240161134d919061264f565b6040516020818303038152906040527f2c2ecbc2000000000000000000000000000000000000000000000000000000007bffffffffffffffffffffffffffffffffffffffffffffffffffffffff19166020820180517bffffffffffffffffffffffffffffffffffffffffffffffffffffffff8381831617835250505050611acd565b50565b60006114007f360894a13ba1a3210667c828492db98dca3e2076cc3735a920a3ca505d382bbc60001b611cb6565b60000160009054906101000a900473ffffffffffffffffffffffffffffffffffffffff16905090565b611431611a05565b50565b6114607f4910fdfa16fed3260ed0e7147f7cc6da11a60208b5b9406d12a635614ffd914360001b611cc0565b60000160009054906101000a900460ff16156114845761147f83611cca565b61159d565b8273ffffffffffffffffffffffffffffffffffffffff166352d1902d6040518163ffffffff1660e01b8152600401602060405180830381865afa9250505080156114ec57506040513d601f19601f820116820180604052508101906114e99190613082565b60015b61152b576040517f08c379a000000000000000000000000000000000000000000000000000000000815260040161152290613121565b60405180910390fd5b7f360894a13ba1a3210667c828492db98dca3e2076cc3735a920a3ca505d382bbc60001b8114611590576040517f08c379a0000000000000000000000000000000000000000000000000000000008152600401611587906131b3565b60405180910390fd5b5061159c838383611d83565b5b505050565b6115aa610dbe565b73ffffffffffffffffffffffffffffffffffffffff163373ffffffffffffffffffffffffffffffffffffffff1614611617576040517f08c379a000000000000000000000000000000000000000000000000000000000815260040161160e9061321f565b60405180910390fd5b565b60006116596040518060400160405280600481526020017f48455245000000000000000000000000000000000000000000000000000000008152506111b0565b600061166483611249565b905061166f83611279565b61167881611279565b6000808580610140019061168c919061298b565b81019061169991906127ae565b9150915060006116b2838561131290919063ffffffff16565b905060006116c9838661131290919063ffffffff16565b90506116d482611339565b6116dd81611339565b60008273ffffffffffffffffffffffffffffffffffffffff16600260009054906101000a900473ffffffffffffffffffffffffffffffffffffffff1673ffffffffffffffffffffffffffffffffffffffff1614905060008273ffffffffffffffffffffffffffffffffffffffff16600360009054906101000a900473ffffffffffffffffffffffffffffffffffffffff1673ffffffffffffffffffffffffffffffffffffffff161490508180156117915750805b156117a65760009750505050505050506117b2565b60019750505050505050505b92915050565b80602001356001600081819054906101000a90046bffffffffffffffffffffffff16809291906117e790613257565b91906101000a8154816bffffffffffffffffffffffff02191690836bffffffffffffffffffffffff1602179055506bffffffffffffffffffffffff1614611863576040517f08c379a000000000000000000000000000000000000000000000000000000000815260040161185a906132d8565b60405180910390fd5b50565b600081146118ff5760003373ffffffffffffffffffffffffffffffffffffffff16827fffffffffffffffffffffffffffffffffffffffffffffffffffffffffffffffff906040516118b69061331e565b600060405180830381858888f193505050503d80600081146118f4576040519150601f19603f3d011682016040523d82523d6000602084013e6118f9565b606091505b50509050505b50565b6000808273ffffffffffffffffffffffffffffffffffffffff163b119050919050565b806001600c6101000a81548173ffffffffffffffffffffffffffffffffffffffff021916908373ffffffffffffffffffffffffffffffffffffffff1602179055506001600c9054906101000a900473ffffffffffffffffffffffffffffffffffffffff1673ffffffffffffffffffffffffffffffffffffffff167f000000000000000000000000000000000000000000000000000000000000000073ffffffffffffffffffffffffffffffffffffffff167f47e55c76e7a6f1fd8996a1da8008c1ea29699cca35e7bcd057f2dec313b6e5de60405160405180910390a350565b6001600c9054906101000a900473ffffffffffffffffffffffffffffffffffffffff1673ffffffffffffffffffffffffffffffffffffffff163373ffffffffffffffffffffffffffffffffffffffff161480611a8c57503073ffffffffffffffffffffffffffffffffffffffff163373ffffffffffffffffffffffffffffffffffffffff16145b611acb576040517f08c379a0000000000000000000000000000000000000000000000000000000008152600401611ac29061337f565b60405180910390fd5b565b60008151905060006a636f6e736f6c652e6c6f679050602083016000808483855afa5050505050565b600080604183511415611b385760008060006020860151925060408601519150606086015160001a9050611b2c87828585611daf565b94509450505050611b41565b60006002915091505b9250929050565b60006004811115611b5c57611b5b61339f565b5b816004811115611b6f57611b6e61339f565b5b1415611b7a57611cb3565b60016004811115611b8e57611b8d61339f565b5b816004811115611ba157611ba061339f565b5b1415611be2576040517f08c379a0000000000000000000000000000000000000000000000000000000008152600401611bd99061341a565b60405180910390fd5b60026004811115611bf657611bf561339f565b5b816004811115611c0957611c0861339f565b5b1415611c4a576040517f08c379a0000000000000000000000000000000000000000000000000000000008152600401611c4190613486565b60405180910390fd5b60036004811115611c5e57611c5d61339f565b5b816004811115611c7157611c7061339f565b5b1415611cb2576040517f08c379a0000000000000000000000000000000000000000000000000000000008152600401611ca990613518565b60405180910390fd5b5b50565b6000819050919050565b6000819050919050565b611cd381611902565b611d12576040517f08c379a0000000000000000000000000000000000000000000000000000000008152600401611d09906135aa565b60405180910390fd5b80611d3f7f360894a13ba1a3210667c828492db98dca3e2076cc3735a920a3ca505d382bbc60001b611cb6565b60000160006101000a81548173ffffffffffffffffffffffffffffffffffffffff021916908373ffffffffffffffffffffffffffffffffffffffff16021790555050565b611d8c83611e92565b600082511180611d995750805b15611daa57611da88383611ee1565b505b505050565b6000807f7fffffffffffffffffffffffffffffff5d576e7357a4501ddfe92f46681b20a08360001c1115611dea576000600391509150611e89565b600060018787878760405160008152602001604052604051611e0f94939291906135d9565b6020604051602081039080840390855afa158015611e31573d6000803e3d6000fd5b505050602060405103519050600073ffffffffffffffffffffffffffffffffffffffff168173ffffffffffffffffffffffffffffffffffffffff161415611e8057600060019250925050611e89565b80600092509250505b94509492505050565b611e9b81611cca565b8073ffffffffffffffffffffffffffffffffffffffff167fbc7cd75a20ee27fd9adebab32041f755214dbc6bffa90cc0225b39da2e5c2d3b60405160405180910390a250565b6060611f06838360405180606001604052806027815260200161368b60279139611f0e565b905092915050565b60606000808573ffffffffffffffffffffffffffffffffffffffff1685604051611f389190612f52565b600060405180830381855af49150503d8060008114611f73576040519150601f19603f3d011682016040523d82523d6000602084013e611f78565b606091505b5091509150611f8986838387611f94565b925050509392505050565b60608315611ff757600083511415611fef57611faf85611902565b611fee576040517f08c379a0000000000000000000000000000000000000000000000000000000008152600401611fe59061366a565b60405180910390fd5b5b829050612002565b612001838361200a565b5b949350505050565b60008251111561201d5781518083602001fd5b806040517f08c379a00000000000000000000000000000000000000000000000000000000081526004016120519190612fad565b60405180910390fd5b6000604051905090565b600080fd5b600080fd5b600080fd5b600080fd5b600080fd5b60008083601f8401126120935761209261206e565b5b8235905067ffffffffffffffff8111156120b0576120af612073565b5b6020830191508360208202830111156120cc576120cb612078565b5b9250929050565b60008083601f8401126120e9576120e861206e565b5b8235905067ffffffffffffffff81111561210657612105612073565b5b60208301915083602082028301111561212257612121612078565b5b9250929050565b6000806000806040858703121561214357612142612064565b5b600085013567ffffffffffffffff81111561216157612160612069565b5b61216d8782880161207d565b9450945050602085013567ffffffffffffffff8111156121905761218f612069565b5b61219c878288016120d3565b925092505092959194509250565b600080fd5b6000601f19601f8301169050919050565b7f4e487b7100000000000000000000000000000000000000000000000000000000600052604160045260246000fd5b6121f8826121af565b810181811067ffffffffffffffff82111715612217576122166121c0565b5b80604052505050565b600061222a61205a565b905061223682826121ef565b919050565b600067ffffffffffffffff821115612256576122556121c0565b5b61225f826121af565b9050602081019050919050565b82818337600083830152505050565b600061228e6122898461223b565b612220565b9050828152602081018484840111156122aa576122a96121aa565b5b6122b584828561226c565b509392505050565b600082601f8301126122d2576122d161206e565b5b81356122e284826020860161227b565b91505092915050565b6000819050919050565b6122fe816122eb565b811461230957600080fd5b50565b60008135905061231b816122f5565b92915050565b6000806040838503121561233857612337612064565b5b600083013567ffffffffffffffff81111561235657612355612069565b5b612362858286016122bd565b92505060206123738582860161230c565b9150509250929050565b6000819050919050565b6123908161237d565b82525050565b60006020820190506123ab6000830184612387565b92915050565b600073ffffffffffffffffffffffffffffffffffffffff82169050919050565b60006123dc826123b1565b9050919050565b6123ec816123d1565b81146123f757600080fd5b50565b600081359050612409816123e3565b92915050565b60006020828403121561242557612424612064565b5b6000612433848285016123fa565b91505092915050565b600080fd5b600061016082840312156124585761245761243c565b5b81905092915050565b61246a8161237d565b811461247557600080fd5b50565b60008135905061248781612461565b92915050565b6000806000606084860312156124a6576124a5612064565b5b600084013567ffffffffffffffff8111156124c4576124c3612069565b5b6124d086828701612441565b93505060206124e18682870161230c565b92505060406124f286828701612478565b9150509250925092565b6000806040838503121561251357612512612064565b5b6000612521858286016123fa565b9250506020612532858286016123fa565b9150509250929050565b6000612547826123b1565b9050919050565b6125578161253c565b811461256257600080fd5b50565b6000813590506125748161254e565b92915050565b6000806040838503121561259157612590612064565b5b600061259f85828601612565565b92505060206125b085828601612478565b9150509250929050565b600080604083850312156125d1576125d0612064565b5b60006125df858286016123fa565b925050602083013567ffffffffffffffff811115612600576125ff612069565b5b61260c858286016122bd565b9150509250929050565b61261f816122eb565b82525050565b600060208201905061263a6000830184612616565b92915050565b612649816123d1565b82525050565b60006020820190506126646000830184612640565b92915050565b6000819050919050565b600061268f61268a612685846123b1565b61266a565b6123b1565b9050919050565b60006126a182612674565b9050919050565b60006126b382612696565b9050919050565b6126c3816126a8565b82525050565b60006020820190506126de60008301846126ba565b92915050565b60008083601f8401126126fa576126f961206e565b5b8235905067ffffffffffffffff81111561271757612716612073565b5b60208301915083600182028301111561273357612732612078565b5b9250929050565b6000806000806060858703121561275457612753612064565b5b6000612762878288016123fa565b945050602061277387828801612478565b935050604085013567ffffffffffffffff81111561279457612793612069565b5b6127a0878288016126e4565b925092505092959194509250565b600080604083850312156127c5576127c4612064565b5b600083013567ffffffffffffffff8111156127e3576127e2612069565b5b6127ef858286016122bd565b925050602083013567ffffffffffffffff8111156128105761280f612069565b5b61281c858286016122bd565b9150509250929050565b600081519050919050565b600082825260208201905092915050565b60005b83811015612860578082015181840152602081019050612845565b8381111561286f576000848401525b50505050565b600061288082612826565b61288a8185612831565b935061289a818560208601612842565b6128a3816121af565b840191505092915050565b600060208201905081810360008301526128c88184612875565b905092915050565b600082825260208201905092915050565b7f77726f6e67206172726179206c656e6774687300000000000000000000000000600082015250565b60006129176013836128d0565b9150612922826128e1565b602082019050919050565b600060208201905081810360008301526129468161290a565b9050919050565b7f4e487b7100000000000000000000000000000000000000000000000000000000600052603260045260246000fd5b600080fd5b600080fd5b600080fd5b600080833560016020038436030381126129a8576129a761297c565b5b80840192508235915067ffffffffffffffff8211156129ca576129c9612981565b5b6020830192506001820236038313156129e6576129e5612986565b5b509250929050565b7f4e487b7100000000000000000000000000000000000000000000000000000000600052601160045260246000fd5b6000612a288261237d565b91507fffffffffffffffffffffffffffffffffffffffffffffffffffffffffffffffff821415612a5b57612a5a6129ee565b5b600182019050919050565b6000612a79612a748461223b565b612220565b905082815260208101848484011115612a9557612a946121aa565b5b612aa0848285612842565b509392505050565b600082601f830112612abd57612abc61206e565b5b8151612acd848260208601612a66565b91505092915050565b60008060408385031215612aed57612aec612064565b5b600083015167ffffffffffffffff811115612b0b57612b0a612069565b5b612b1785828601612aa8565b925050602083015167ffffffffffffffff811115612b3857612b37612069565b5b612b4485828601612aa8565b9150509250929050565b7f46756e6374696f6e206d7573742062652063616c6c6564207468726f7567682060008201527f64656c656761746563616c6c0000000000000000000000000000000000000000602082015250565b6000612baa602c836128d0565b9150612bb582612b4e565b604082019050919050565b60006020820190508181036000830152612bd981612b9d565b9050919050565b7f46756e6374696f6e206d7573742062652063616c6c6564207468726f7567682060008201527f6163746976652070726f78790000000000000000000000000000000000000000602082015250565b6000612c3c602c836128d0565b9150612c4782612be0565b604082019050919050565b60006020820190508181036000830152612c6b81612c2f565b9050919050565b7f496e697469616c697a61626c653a20636f6e747261637420697320616c72656160008201527f647920696e697469616c697a6564000000000000000000000000000000000000602082015250565b6000612cce602e836128d0565b9150612cd982612c72565b604082019050919050565b60006020820190508181036000830152612cfd81612cc1565b9050919050565b6000819050919050565b600060ff82169050919050565b6000612d36612d31612d2c84612d04565b61266a565b612d0e565b9050919050565b612d4681612d1b565b82525050565b6000602082019050612d616000830184612d3d565b92915050565b612d708161253c565b82525050565b6000604082019050612d8b6000830185612d67565b612d986020830184612387565b9392505050565b7f555550535570677261646561626c653a206d757374206e6f742062652063616c60008201527f6c6564207468726f7567682064656c656761746563616c6c0000000000000000602082015250565b6000612dfb6038836128d0565b9150612e0682612d9f565b604082019050919050565b60006020820190508181036000830152612e2a81612dee565b9050919050565b600081519050612e4081612461565b92915050565b600060208284031215612e5c57612e5b612064565b5b6000612e6a84828501612e31565b91505092915050565b60006040820190508181036000830152612e8d8185612875565b90508181036020830152612ea18184612875565b90509392505050565b7f6163636f756e743a206e6f74204f776e6572206f7220456e747279506f696e74600082015250565b6000612ee06020836128d0565b9150612eeb82612eaa565b602082019050919050565b60006020820190508181036000830152612f0f81612ed3565b9050919050565b600081905092915050565b6000612f2c82612826565b612f368185612f16565b9350612f46818560208601612842565b80840191505092915050565b6000612f5e8284612f21565b915081905092915050565b600081519050919050565b6000612f7f82612f69565b612f8981856128d0565b9350612f99818560208601612842565b612fa2816121af565b840191505092915050565b60006020820190508181036000830152612fc78184612f74565b905092915050565b600081905092915050565b7f19457468657265756d205369676e6564204d6573736167653a0a333200000000600082015250565b6000613010601c83612fcf565b915061301b82612fda565b601c82019050919050565b6000819050919050565b61304161303c826122eb565b613026565b82525050565b600061305282613003565b915061305e8284613030565b60208201915081905092915050565b60008151905061307c816122f5565b92915050565b60006020828403121561309857613097612064565b5b60006130a68482850161306d565b91505092915050565b7f45524331393637557067726164653a206e657720696d706c656d656e7461746960008201527f6f6e206973206e6f742055555053000000000000000000000000000000000000602082015250565b600061310b602e836128d0565b9150613116826130af565b604082019050919050565b6000602082019050818103600083015261313a816130fe565b9050919050565b7f45524331393637557067726164653a20756e737570706f727465642070726f7860008201527f6961626c65555549440000000000000000000000000000000000000000000000602082015250565b600061319d6029836128d0565b91506131a882613141565b604082019050919050565b600060208201905081810360008301526131cc81613190565b9050919050565b7f6163636f756e743a206e6f742066726f6d20456e747279506f696e7400000000600082015250565b6000613209601c836128d0565b9150613214826131d3565b602082019050919050565b60006020820190508181036000830152613238816131fc565b9050919050565b60006bffffffffffffffffffffffff82169050919050565b60006132628261323f565b91506bffffffffffffffffffffffff821415613281576132806129ee565b5b600182019050919050565b7f6163636f756e743a20696e76616c6964206e6f6e636500000000000000000000600082015250565b60006132c26016836128d0565b91506132cd8261328c565b602082019050919050565b600060208201905081810360008301526132f1816132b5565b9050919050565b50565b6000613308600083612f16565b9150613313826132f8565b600082019050919050565b6000613329826132fb565b9150819050919050565b7f6f6e6c79206f776e657200000000000000000000000000000000000000000000600082015250565b6000613369600a836128d0565b915061337482613333565b602082019050919050565b600060208201905081810360008301526133988161335c565b9050919050565b7f4e487b7100000000000000000000000000000000000000000000000000000000600052602160045260246000fd5b7f45434453413a20696e76616c6964207369676e61747572650000000000000000600082015250565b60006134046018836128d0565b915061340f826133ce565b602082019050919050565b60006020820190508181036000830152613433816133f7565b9050919050565b7f45434453413a20696e76616c6964207369676e6174757265206c656e67746800600082015250565b6000613470601f836128d0565b915061347b8261343a565b602082019050919050565b6000602082019050818103600083015261349f81613463565b9050919050565b7f45434453413a20696e76616c6964207369676e6174757265202773272076616c60008201527f7565000000000000000000000000000000000000000000000000000000000000602082015250565b60006135026022836128d0565b915061350d826134a6565b604082019050919050565b60006020820190508181036000830152613531816134f5565b9050919050565b7f455243313936373a206e657720696d706c656d656e746174696f6e206973206e60008201527f6f74206120636f6e747261637400000000000000000000000000000000000000602082015250565b6000613594602d836128d0565b915061359f82613538565b604082019050919050565b600060208201905081810360008301526135c381613587565b9050919050565b6135d381612d0e565b82525050565b60006080820190506135ee6000830187612616565b6135fb60208301866135ca565b6136086040830185612616565b6136156060830184612616565b95945050505050565b7f416464726573733a2063616c6c20746f206e6f6e2d636f6e7472616374000000600082015250565b6000613654601d836128d0565b915061365f8261361e565b602082019050919050565b6000602082019050818103600083015261368381613647565b905091905056fe416464726573733a206c6f772d6c6576656c2064656c65676174652063616c6c206661696c6564a2646970667358221220a05055ff35b4edfffac95a232d0a3d7c5c33af61571f82a3f817af2588d5271664736f6c634300080c0033",
  "devdoc": {
    "kind": "dev",
    "methods": {},
    "version": 1
  },
  "userdoc": {
    "kind": "user",
    "methods": {
      "createAccount(address,address,uint256)": {
        "notice": "create an account, and return its address. returns the address even if the account is already deployed. Note that during UserOperation execution, this method is called only if the account is not deployed. This method returns an existing account address so that entryPoint.getSenderAddress() would work even after account creation"
      },
      "getAddress(address,address,uint256)": {
        "notice": "calculate the counterfactual address of this account as it would be returned by createAccount()"
      }
    },
    "version": 1
  },
  "storageLayout": {
    "storage": [],
    "types": null
  }
}