{
  "address": "0xa82fF9aFd8f496c3d6ac40E2a0F282E47488CFc9",
  "abi": [
    {
      "inputs": [
        {
          "internalType": "contract IEntryPoint",
          "name": "_entryPoint",
          "type": "address"
        }
      ],
      "stateMutability": "nonpayable",
      "type": "constructor"
    },
    {
      "inputs": [],
      "name": "accountImplementation",
      "outputs": [
        {
          "internalType": "contract TwoOwnerAccount",
          "name": "",
          "type": "address"
        }
      ],
      "stateMutability": "view",
      "type": "function"
    },
    {
      "inputs": [
        {
          "internalType": "address",
          "name": "_ownerOne",
          "type": "address"
        },
        {
          "internalType": "address",
          "name": "_ownerTwo",
          "type": "address"
        },
        {
          "internalType": "uint256",
          "name": "salt",
          "type": "uint256"
        }
      ],
      "name": "createAccount",
      "outputs": [
        {
          "internalType": "contract TwoOwnerAccount",
          "name": "ret",
          "type": "address"
        }
      ],
      "stateMutability": "nonpayable",
      "type": "function"
    },
    {
      "inputs": [
        {
          "internalType": "address",
          "name": "_ownerOne",
          "type": "address"
        },
        {
          "internalType": "address",
          "name": "_ownerTwo",
          "type": "address"
        },
        {
          "internalType": "uint256",
          "name": "salt",
          "type": "uint256"
        }
      ],
      "name": "getAddress",
      "outputs": [
        {
          "internalType": "address",
          "name": "",
          "type": "address"
        }
      ],
      "stateMutability": "view",
      "type": "function"
    }
  ],
  "transactionHash": "0xb2457b4d54588baa32fe3dc4e82914fa187d7a46bb038422b93678610682e5be",
  "args": [
    "0x1835bc5477D6420bD33A27a0c1d7dB8c3B9b1727"
  ],
  "numDeployments": 9,
  "solcInputHash": "85b4a4b9c8314920fcd60b5674a6c7d4",
  "bytecode": "0x60a06040523480156200001157600080fd5b506040516200502538038062005025833981810160405281019062000037919062000136565b806040516200004690620000aa565b620000529190620001d3565b604051809103906000f0801580156200006f573d6000803e3d6000fd5b5073ffffffffffffffffffffffffffffffffffffffff1660808173ffffffffffffffffffffffffffffffffffffffff168152505050620001f0565b61387c80620017a983390190565b600080fd5b600073ffffffffffffffffffffffffffffffffffffffff82169050919050565b6000620000ea82620000bd565b9050919050565b6000620000fe82620000dd565b9050919050565b6200011081620000f1565b81146200011c57600080fd5b50565b600081519050620001308162000105565b92915050565b6000602082840312156200014f576200014e620000b8565b5b60006200015f848285016200011f565b91505092915050565b6000819050919050565b6000620001936200018d6200018784620000bd565b62000168565b620000bd565b9050919050565b6000620001a78262000172565b9050919050565b6000620001bb826200019a565b9050919050565b620001cd81620001ae565b82525050565b6000602082019050620001ea6000830184620001c2565b92915050565b60805161158f6200021a6000396000818161010b015281816101e0015261028c015261158f6000f3fe60806040523480156200001157600080fd5b5060043610620000465760003560e01c806308a6354e146200004b57806311464fbe14620000815780631230aea214620000a3575b600080fd5b620000696004803603810190620000639190620005f1565b620000d9565b6040516200007891906200065e565b60405180910390f35b6200008b620001de565b6040516200009a9190620006e6565b60405180910390f35b620000c16004803603810190620000bb9190620005f1565b62000202565b604051620000d09190620006e6565b60405180910390f35b6000620001d58260001b60405180602001620000f5906200053e565b6020820181038252601f19601f820116604052507f000000000000000000000000000000000000000000000000000000000000000087876040516024016200013f92919062000703565b60405160208183030381529060405263485cc95560e01b6020820180517bffffffffffffffffffffffffffffffffffffffffffffffffffffffff838183161783525050505060405160200162000197929190620007d4565b604051602081830303815290604052604051602001620001b99291906200084a565b6040516020818303038152906040528051906020012062000399565b90509392505050565b7f000000000000000000000000000000000000000000000000000000000000000081565b6000620002446040518060400160405280601781526020017f4c65747320736565206966207765206172652068657265000000000000000000815250620003b0565b600062000253858585620000d9565b905060008173ffffffffffffffffffffffffffffffffffffffff163b905060008111156200028657819250505062000392565b8360001b7f00000000000000000000000000000000000000000000000000000000000000008787604051602401620002c092919062000703565b60405160208183030381529060405263485cc95560e01b6020820180517bffffffffffffffffffffffffffffffffffffffffffffffffffffffff838183161783525050505060405162000313906200053e565b62000320929190620007d4565b8190604051809103906000f590508015801562000341573d6000803e3d6000fd5b509250620003846040518060400160405280600f81526020017f5765206465706c6f7965642069743f0000000000000000000000000000000000815250620003b0565b6200038f836200044d565b50505b9392505050565b6000620003a8838330620004ea565b905092915050565b6200044a81604051602401620003c79190620008cf565b6040516020818303038152906040527f41304fac000000000000000000000000000000000000000000000000000000007bffffffffffffffffffffffffffffffffffffffffffffffffffffffff19166020820180517bffffffffffffffffffffffffffffffffffffffffffffffffffffffff838183161783525050505062000515565b50565b620004e7816040516024016200046491906200065e565b6040516020818303038152906040527f2c2ecbc2000000000000000000000000000000000000000000000000000000007bffffffffffffffffffffffffffffffffffffffffffffffffffffffff19166020820180517bffffffffffffffffffffffffffffffffffffffffffffffffffffffff838183161783525050505062000515565b50565b6000604051836040820152846020820152828152600b810160ff815360558120925050509392505050565b60008151905060006a636f6e736f6c652e6c6f679050602083016000808483855afa5050505050565b610c6680620008f483390190565b600080fd5b600073ffffffffffffffffffffffffffffffffffffffff82169050919050565b60006200057e8262000551565b9050919050565b620005908162000571565b81146200059c57600080fd5b50565b600081359050620005b08162000585565b92915050565b6000819050919050565b620005cb81620005b6565b8114620005d757600080fd5b50565b600081359050620005eb81620005c0565b92915050565b6000806000606084860312156200060d576200060c6200054c565b5b60006200061d868287016200059f565b935050602062000630868287016200059f565b92505060406200064386828701620005da565b9150509250925092565b620006588162000571565b82525050565b60006020820190506200067560008301846200064d565b92915050565b6000819050919050565b6000620006a6620006a06200069a8462000551565b6200067b565b62000551565b9050919050565b6000620006ba8262000685565b9050919050565b6000620006ce82620006ad565b9050919050565b620006e081620006c1565b82525050565b6000602082019050620006fd6000830184620006d5565b92915050565b60006040820190506200071a60008301856200064d565b6200072960208301846200064d565b9392505050565b600081519050919050565b600082825260208201905092915050565b60005b838110156200076c5780820151818401526020810190506200074f565b838111156200077c576000848401525b50505050565b6000601f19601f8301169050919050565b6000620007a08262000730565b620007ac81856200073b565b9350620007be8185602086016200074c565b620007c98162000782565b840191505092915050565b6000604082019050620007eb60008301856200064d565b8181036020830152620007ff818462000793565b90509392505050565b600081905092915050565b6000620008208262000730565b6200082c818562000808565b93506200083e8185602086016200074c565b80840191505092915050565b600062000858828562000813565b915062000866828462000813565b91508190509392505050565b600081519050919050565b600082825260208201905092915050565b60006200089b8262000872565b620008a781856200087d565b9350620008b98185602086016200074c565b620008c48162000782565b840191505092915050565b60006020820190508181036000830152620008eb81846200088e565b90509291505056fe608060405260405162000c6638038062000c6683398181016040528101906200002991906200058b565b6200003d828260006200004560201b60201c565b5050620007e2565b62000056836200008860201b60201c565b600082511180620000645750805b156200008357620000818383620000df60201b620000371760201c565b505b505050565b62000099816200011560201b60201c565b8073ffffffffffffffffffffffffffffffffffffffff167fbc7cd75a20ee27fd9adebab32041f755214dbc6bffa90cc0225b39da2e5c2d3b60405160405180910390a250565b60606200010d838360405180606001604052806027815260200162000c3f60279139620001eb60201b60201c565b905092915050565b6200012b816200027d60201b620000641760201c565b6200016d576040517f08c379a0000000000000000000000000000000000000000000000000000000008152600401620001649062000678565b60405180910390fd5b80620001a77f360894a13ba1a3210667c828492db98dca3e2076cc3735a920a3ca505d382bbc60001b620002a060201b620000871760201c565b60000160006101000a81548173ffffffffffffffffffffffffffffffffffffffff021916908373ffffffffffffffffffffffffffffffffffffffff16021790555050565b60606000808573ffffffffffffffffffffffffffffffffffffffff1685604051620002179190620006e7565b600060405180830381855af49150503d806000811462000254576040519150601f19603f3d011682016040523d82523d6000602084013e62000259565b606091505b50915091506200027286838387620002aa60201b60201c565b925050509392505050565b6000808273ffffffffffffffffffffffffffffffffffffffff163b119050919050565b6000819050919050565b606083156200031b576000835114156200031257620002cf856200027d60201b60201c565b62000311576040517f08c379a0000000000000000000000000000000000000000000000000000000008152600401620003089062000750565b60405180910390fd5b5b8290506200032e565b6200032d83836200033660201b60201c565b5b949350505050565b6000825111156200034a5781518083602001fd5b806040517f08c379a0000000000000000000000000000000000000000000000000000000008152600401620003809190620007be565b60405180910390fd5b6000604051905090565b600080fd5b600080fd5b600073ffffffffffffffffffffffffffffffffffffffff82169050919050565b6000620003ca826200039d565b9050919050565b620003dc81620003bd565b8114620003e857600080fd5b50565b600081519050620003fc81620003d1565b92915050565b600080fd5b600080fd5b6000601f19601f8301169050919050565b7f4e487b7100000000000000000000000000000000000000000000000000000000600052604160045260246000fd5b62000457826200040c565b810181811067ffffffffffffffff821117156200047957620004786200041d565b5b80604052505050565b60006200048e62000389565b90506200049c82826200044c565b919050565b600067ffffffffffffffff821115620004bf57620004be6200041d565b5b620004ca826200040c565b9050602081019050919050565b60005b83811015620004f7578082015181840152602081019050620004da565b8381111562000507576000848401525b50505050565b6000620005246200051e84620004a1565b62000482565b90508281526020810184848401111562000543576200054262000407565b5b62000550848285620004d7565b509392505050565b600082601f83011262000570576200056f62000402565b5b8151620005828482602086016200050d565b91505092915050565b60008060408385031215620005a557620005a462000393565b5b6000620005b585828601620003eb565b925050602083015167ffffffffffffffff811115620005d957620005d862000398565b5b620005e78582860162000558565b9150509250929050565b600082825260208201905092915050565b7f455243313936373a206e657720696d706c656d656e746174696f6e206973206e60008201527f6f74206120636f6e747261637400000000000000000000000000000000000000602082015250565b600062000660602d83620005f1565b91506200066d8262000602565b604082019050919050565b60006020820190508181036000830152620006938162000651565b9050919050565b600081519050919050565b600081905092915050565b6000620006bd826200069a565b620006c98185620006a5565b9350620006db818560208601620004d7565b80840191505092915050565b6000620006f58284620006b0565b915081905092915050565b7f416464726573733a2063616c6c20746f206e6f6e2d636f6e7472616374000000600082015250565b600062000738601d83620005f1565b9150620007458262000700565b602082019050919050565b600060208201905081810360008301526200076b8162000729565b9050919050565b600081519050919050565b60006200078a8262000772565b620007968185620005f1565b9350620007a8818560208601620004d7565b620007b3816200040c565b840191505092915050565b60006020820190508181036000830152620007da81846200077d565b905092915050565b61044d80620007f26000396000f3fe6080604052366100135761001161001d565b005b61001b61001d565b005b610025610091565b610035610030610093565b6100a2565b565b606061005c83836040518060600160405280602781526020016103f1602791396100c8565b905092915050565b6000808273ffffffffffffffffffffffffffffffffffffffff163b119050919050565b6000819050919050565b565b600061009d61014e565b905090565b3660008037600080366000845af43d6000803e80600081146100c3573d6000f35b3d6000fd5b60606000808573ffffffffffffffffffffffffffffffffffffffff16856040516100f291906102e5565b600060405180830381855af49150503d806000811461012d576040519150601f19603f3d011682016040523d82523d6000602084013e610132565b606091505b5091509150610143868383876101a5565b925050509392505050565b600061017c7f360894a13ba1a3210667c828492db98dca3e2076cc3735a920a3ca505d382bbc60001b610087565b60000160009054906101000a900473ffffffffffffffffffffffffffffffffffffffff16905090565b6060831561020857600083511415610200576101c085610064565b6101ff576040517f08c379a00000000000000000000000000000000000000000000000000000000081526004016101f690610359565b60405180910390fd5b5b829050610213565b610212838361021b565b5b949350505050565b60008251111561022e5781518083602001fd5b806040517f08c379a000000000000000000000000000000000000000000000000000000000815260040161026291906103ce565b60405180910390fd5b600081519050919050565b600081905092915050565b60005b8381101561029f578082015181840152602081019050610284565b838111156102ae576000848401525b50505050565b60006102bf8261026b565b6102c98185610276565b93506102d9818560208601610281565b80840191505092915050565b60006102f182846102b4565b915081905092915050565b600082825260208201905092915050565b7f416464726573733a2063616c6c20746f206e6f6e2d636f6e7472616374000000600082015250565b6000610343601d836102fc565b915061034e8261030d565b602082019050919050565b6000602082019050818103600083015261037281610336565b9050919050565b600081519050919050565b6000601f19601f8301169050919050565b60006103a082610379565b6103aa81856102fc565b93506103ba818560208601610281565b6103c381610384565b840191505092915050565b600060208201905081810360008301526103e88184610395565b90509291505056fe416464726573733a206c6f772d6c6576656c2064656c65676174652063616c6c206661696c6564a2646970667358221220e8f120fdd8eb5304fb490011162f3d0358b3af306a024fb3263820c5ff85f56164736f6c634300080c0033416464726573733a206c6f772d6c6576656c2064656c65676174652063616c6c206661696c6564a2646970667358221220d5cbebc06e889e8649fc0a7bb0693b7159648a8e62a9812a976b167fd278830464736f6c634300080c003360c06040523073ffffffffffffffffffffffffffffffffffffffff1660809073ffffffffffffffffffffffffffffffffffffffff168152503480156200004457600080fd5b506040516200387c3803806200387c83398181016040528101906200006a919062000125565b808073ffffffffffffffffffffffffffffffffffffffff1660a08173ffffffffffffffffffffffffffffffffffffffff1681525050505062000157565b600080fd5b600073ffffffffffffffffffffffffffffffffffffffff82169050919050565b6000620000d982620000ac565b9050919050565b6000620000ed82620000cc565b9050919050565b620000ff81620000e0565b81146200010b57600080fd5b50565b6000815190506200011f81620000f4565b92915050565b6000602082840312156200013e576200013d620000a7565b5b60006200014e848285016200010e565b91505092915050565b60805160a0516136dc620001a060003960008181610e6301526119820152600081816107a30152818161083201528181610bf001528181610c7f0152610d2f01526136dc6000f3fe60806040526004361061010d5760003560e01c806383aa998511610095578063b61d27f611610064578063b61d27f614610334578063c399ec881461035d578063c4d66de814610388578063f0664a4f146103b1578063f0938ee1146103dc57610114565b806383aa9985146102885780638da5cb5b146102b3578063affed0e0146102de578063b0d691fe1461030957610114565b8063485cc955116100dc578063485cc955146101e55780634a58db191461020e5780634d44560d146102185780634f1ef2861461024157806352d1902d1461025d57610114565b80630825d1fc1461011957806318dfb3c71461015657806319ae901f1461017f5780633659cfe6146101bc57610114565b3661011457005b600080fd5b34801561012557600080fd5b50610140600480360381019061013b919061213e565b610419565b60405161014d91906121d0565b60405180910390f35b34801561016257600080fd5b5061017d600480360381019061017891906122a6565b6104fa565b005b34801561018b57600080fd5b506101a660048036038101906101a19190612468565b61060c565b6040516101b391906121d0565b60405180910390f35b3480156101c857600080fd5b506101e360048036038101906101de91906124c4565b6107a1565b005b3480156101f157600080fd5b5061020c600480360381019061020791906124f1565b61092a565b005b610216610aee565b005b34801561022457600080fd5b5061023f600480360381019061023a919061256f565b610b6e565b005b61025b600480360381019061025691906125af565b610bee565b005b34801561026957600080fd5b50610272610d2b565b60405161027f919061261a565b60405180910390f35b34801561029457600080fd5b5061029d610de4565b6040516102aa9190612644565b60405180910390f35b3480156102bf57600080fd5b506102c8610e0a565b6040516102d59190612644565b60405180910390f35b3480156102ea57600080fd5b506102f3610e30565b60405161030091906121d0565b60405180910390f35b34801561031557600080fd5b5061031e610e5f565b60405161032b91906126be565b60405180910390f35b34801561034057600080fd5b5061035b6004803603810190610356919061272f565b610e87565b005b34801561036957600080fd5b50610372610ee4565b60405161037f91906121d0565b60405180910390f35b34801561039457600080fd5b506103af60048036038101906103aa91906124c4565b610f6c565b005b3480156103bd57600080fd5b506103c66110ac565b6040516103d39190612644565b60405180910390f35b3480156103e857600080fd5b5061040360048036038101906103fe91906127a3565b6110d2565b60405161041091906128a3565b60405180910390f35b60006104596040518060400160405280601881526020017f57652061726520696e2076616c6964617465557365724f7000000000000000008152506110fe565b610469610464610e5f565b611197565b61047233611197565b61047a611230565b6104b86040518060400160405280601b81526020017f7765206172652066726f6d2074686520656e74727920706f696e7400000000008152506110fe565b6104c38585856112a7565b905060008580604001906104d791906128d4565b905014156104e9576104e885611386565b5b6104f282611434565b949350505050565b6105026114d0565b81819050848490501461054a576040517f08c379a000000000000000000000000000000000000000000000000000000000815260040161054190612994565b60405180910390fd5b60005b84849050811015610605576105f285858381811061056e5761056d6129b4565b5b905060200201602081019061058391906124c4565b6000858585818110610598576105976129b4565b5b90506020028101906105aa91906128d4565b8080601f016020809104026020016040519081016040528093929190818152602001838380828437600081840152601f19601f8201169050808301925050505050505061159f565b80806105fd90612a12565b91505061054d565b5050505050565b600061064c6040518060400160405280600481526020017f48455245000000000000000000000000000000000000000000000000000000008152506110fe565b600061065783611623565b905061066283611653565b61066b81611653565b600080858060200190518101906106829190612acb565b91509150600061069b83856116ec90919063ffffffff16565b905060006106b283866116ec90919063ffffffff16565b90506106bd82611197565b6106c681611197565b60008273ffffffffffffffffffffffffffffffffffffffff16600260009054906101000a900473ffffffffffffffffffffffffffffffffffffffff1673ffffffffffffffffffffffffffffffffffffffff1614905060008273ffffffffffffffffffffffffffffffffffffffff16600360009054906101000a900473ffffffffffffffffffffffffffffffffffffffff1673ffffffffffffffffffffffffffffffffffffffff1614905081801561077a5750805b1561078f57600097505050505050505061079b565b60019750505050505050505b92915050565b7f000000000000000000000000000000000000000000000000000000000000000073ffffffffffffffffffffffffffffffffffffffff163073ffffffffffffffffffffffffffffffffffffffff161415610830576040517f08c379a000000000000000000000000000000000000000000000000000000000815260040161082790612bb5565b60405180910390fd5b7f000000000000000000000000000000000000000000000000000000000000000073ffffffffffffffffffffffffffffffffffffffff1661086f611713565b73ffffffffffffffffffffffffffffffffffffffff16146108c5576040517f08c379a00000000000000000000000000000000000000000000000000000000081526004016108bc90612c47565b60405180910390fd5b6108ce8161176a565b61092781600067ffffffffffffffff8111156108ed576108ec61233d565b5b6040519080825280601f01601f19166020018201604052801561091f5781602001600182028036833780820191505090505b506000611775565b50565b60008060019054906101000a900460ff1615905080801561095b5750600160008054906101000a900460ff1660ff16105b80610988575061096a306118e3565b1580156109875750600160008054906101000a900460ff1660ff16145b5b6109c7576040517f08c379a00000000000000000000000000000000000000000000000000000000081526004016109be90612cd9565b60405180910390fd5b60016000806101000a81548160ff021916908360ff1602179055508015610a04576001600060016101000a81548160ff0219169083151502179055505b610a0e6000611906565b82600260006101000a81548173ffffffffffffffffffffffffffffffffffffffff021916908373ffffffffffffffffffffffffffffffffffffffff16021790555081600360006101000a81548173ffffffffffffffffffffffffffffffffffffffff021916908373ffffffffffffffffffffffffffffffffffffffff1602179055508015610ae95760008060016101000a81548160ff0219169083151502179055507f7f26b83ff96e1f2b6a682f133852f6798a09c465da95921460cefb38474024986001604051610ae09190612d41565b60405180910390a15b505050565b6000610af8610e5f565b73ffffffffffffffffffffffffffffffffffffffff1634604051610b1b90612d8d565b60006040518083038185875af1925050503d8060008114610b58576040519150601f19603f3d011682016040523d82523d6000602084013e610b5d565b606091505b5050905080610b6b57600080fd5b50565b610b766119e6565b610b7e610e5f565b73ffffffffffffffffffffffffffffffffffffffff1663205c287883836040518363ffffffff1660e01b8152600401610bb8929190612db1565b600060405180830381600087803b158015610bd257600080fd5b505af1158015610be6573d6000803e3d6000fd5b505050505050565b7f000000000000000000000000000000000000000000000000000000000000000073ffffffffffffffffffffffffffffffffffffffff163073ffffffffffffffffffffffffffffffffffffffff161415610c7d576040517f08c379a0000000000000000000000000000000000000000000000000000000008152600401610c7490612bb5565b60405180910390fd5b7f000000000000000000000000000000000000000000000000000000000000000073ffffffffffffffffffffffffffffffffffffffff16610cbc611713565b73ffffffffffffffffffffffffffffffffffffffff1614610d12576040517f08c379a0000000000000000000000000000000000000000000000000000000008152600401610d0990612c47565b60405180910390fd5b610d1b8261176a565b610d2782826001611775565b5050565b60007f000000000000000000000000000000000000000000000000000000000000000073ffffffffffffffffffffffffffffffffffffffff163073ffffffffffffffffffffffffffffffffffffffff1614610dbb576040517f08c379a0000000000000000000000000000000000000000000000000000000008152600401610db290612e4c565b60405180910390fd5b7f360894a13ba1a3210667c828492db98dca3e2076cc3735a920a3ca505d382bbc60001b905090565b600360009054906101000a900473ffffffffffffffffffffffffffffffffffffffff1681565b600160009054906101000a900473ffffffffffffffffffffffffffffffffffffffff1681565b60008060029054906101000a90046bffffffffffffffffffffffff166bffffffffffffffffffffffff16905090565b60007f0000000000000000000000000000000000000000000000000000000000000000905090565b610e8f6114d0565b610ede848484848080601f016020809104026020016040519081016040528093929190818152602001838380828437600081840152601f19601f8201169050808301925050505050505061159f565b50505050565b6000610eee610e5f565b73ffffffffffffffffffffffffffffffffffffffff166370a08231306040518263ffffffff1660e01b8152600401610f269190612644565b602060405180830381865afa158015610f43573d6000803e3d6000fd5b505050506040513d601f19601f82011682018060405250810190610f679190612e81565b905090565b60008060019054906101000a900460ff16159050808015610f9d5750600160008054906101000a900460ff1660ff16105b80610fca5750610fac306118e3565b158015610fc95750600160008054906101000a900460ff1660ff16145b5b611009576040517f08c379a000000000000000000000000000000000000000000000000000000000815260040161100090612cd9565b60405180910390fd5b60016000806101000a81548160ff021916908360ff1602179055508015611046576001600060016101000a81548160ff0219169083151502179055505b61104f82611906565b80156110a85760008060016101000a81548160ff0219169083151502179055507f7f26b83ff96e1f2b6a682f133852f6798a09c465da95921460cefb3847402498600160405161109f9190612d41565b60405180910390a15b5050565b600260009054906101000a900473ffffffffffffffffffffffffffffffffffffffff1681565b606082826040516020016110e7929190612eae565b604051602081830303815290604052905092915050565b611194816040516024016111129190612f29565b6040516020818303038152906040527f41304fac000000000000000000000000000000000000000000000000000000007bffffffffffffffffffffffffffffffffffffffffffffffffffffffff19166020820180517bffffffffffffffffffffffffffffffffffffffffffffffffffffffff8381831617835250505050611aae565b50565b61122d816040516024016111ab9190612644565b6040516020818303038152906040527f2c2ecbc2000000000000000000000000000000000000000000000000000000007bffffffffffffffffffffffffffffffffffffffffffffffffffffffff19166020820180517bffffffffffffffffffffffffffffffffffffffffffffffffffffffff8381831617835250505050611aae565b50565b611238610e5f565b73ffffffffffffffffffffffffffffffffffffffff163373ffffffffffffffffffffffffffffffffffffffff16146112a5576040517f08c379a000000000000000000000000000000000000000000000000000000000815260040161129c90612f97565b60405180910390fd5b565b6000806112b384611623565b905061131b858061014001906112c991906128d4565b8080601f016020809104026020016040519081016040528093929190818152602001838380828437600081840152601f19601f82011690508083019250505050505050826116ec90919063ffffffff16565b73ffffffffffffffffffffffffffffffffffffffff16600160009054906101000a900473ffffffffffffffffffffffffffffffffffffffff1673ffffffffffffffffffffffffffffffffffffffff161461137957600191505061137f565b60009150505b9392505050565b80602001356000600281819054906101000a90046bffffffffffffffffffffffff16809291906113b590612fcf565b91906101000a8154816bffffffffffffffffffffffff02191690836bffffffffffffffffffffffff1602179055506bffffffffffffffffffffffff1614611431576040517f08c379a000000000000000000000000000000000000000000000000000000000815260040161142890613050565b60405180910390fd5b50565b600081146114cd5760003373ffffffffffffffffffffffffffffffffffffffff16827fffffffffffffffffffffffffffffffffffffffffffffffffffffffffffffffff9060405161148490612d8d565b600060405180830381858888f193505050503d80600081146114c2576040519150601f19603f3d011682016040523d82523d6000602084013e6114c7565b606091505b50509050505b50565b6114d8610e5f565b73ffffffffffffffffffffffffffffffffffffffff163373ffffffffffffffffffffffffffffffffffffffff16148061155e5750600160009054906101000a900473ffffffffffffffffffffffffffffffffffffffff1673ffffffffffffffffffffffffffffffffffffffff163373ffffffffffffffffffffffffffffffffffffffff16145b61159d576040517f08c379a0000000000000000000000000000000000000000000000000000000008152600401611594906130bc565b60405180910390fd5b565b6000808473ffffffffffffffffffffffffffffffffffffffff1684846040516115c8919061310d565b60006040518083038185875af1925050503d8060008114611605576040519150601f19603f3d011682016040523d82523d6000602084013e61160a565b606091505b50915091508161161c57805160208201fd5b5050505050565b600081604051602001611636919061319c565b604051602081830303815290604052805190602001209050919050565b6116e981604051602401611667919061261a565b6040516020818303038152906040527f27b7cf85000000000000000000000000000000000000000000000000000000007bffffffffffffffffffffffffffffffffffffffffffffffffffffffff19166020820180517bffffffffffffffffffffffffffffffffffffffffffffffffffffffff8381831617835250505050611aae565b50565b60008060006116fb8585611ad7565b9150915061170881611b29565b819250505092915050565b60006117417f360894a13ba1a3210667c828492db98dca3e2076cc3735a920a3ca505d382bbc60001b611c97565b60000160009054906101000a900473ffffffffffffffffffffffffffffffffffffffff16905090565b6117726119e6565b50565b6117a17f4910fdfa16fed3260ed0e7147f7cc6da11a60208b5b9406d12a635614ffd914360001b611ca1565b60000160009054906101000a900460ff16156117c5576117c083611cab565b6118de565b8273ffffffffffffffffffffffffffffffffffffffff166352d1902d6040518163ffffffff1660e01b8152600401602060405180830381865afa92505050801561182d57506040513d601f19601f8201168201806040525081019061182a91906131d7565b60015b61186c576040517f08c379a000000000000000000000000000000000000000000000000000000000815260040161186390613276565b60405180910390fd5b7f360894a13ba1a3210667c828492db98dca3e2076cc3735a920a3ca505d382bbc60001b81146118d1576040517f08c379a00000000000000000000000000000000000000000000000000000000081526004016118c890613308565b60405180910390fd5b506118dd838383611d64565b5b505050565b6000808273ffffffffffffffffffffffffffffffffffffffff163b119050919050565b80600160006101000a81548173ffffffffffffffffffffffffffffffffffffffff021916908373ffffffffffffffffffffffffffffffffffffffff160217905550600160009054906101000a900473ffffffffffffffffffffffffffffffffffffffff1673ffffffffffffffffffffffffffffffffffffffff167f000000000000000000000000000000000000000000000000000000000000000073ffffffffffffffffffffffffffffffffffffffff167f47e55c76e7a6f1fd8996a1da8008c1ea29699cca35e7bcd057f2dec313b6e5de60405160405180910390a350565b600160009054906101000a900473ffffffffffffffffffffffffffffffffffffffff1673ffffffffffffffffffffffffffffffffffffffff163373ffffffffffffffffffffffffffffffffffffffff161480611a6d57503073ffffffffffffffffffffffffffffffffffffffff163373ffffffffffffffffffffffffffffffffffffffff16145b611aac576040517f08c379a0000000000000000000000000000000000000000000000000000000008152600401611aa390613374565b60405180910390fd5b565b60008151905060006a636f6e736f6c652e6c6f679050602083016000808483855afa5050505050565b600080604183511415611b195760008060006020860151925060408601519150606086015160001a9050611b0d87828585611d90565b94509450505050611b22565b60006002915091505b9250929050565b60006004811115611b3d57611b3c613394565b5b816004811115611b5057611b4f613394565b5b1415611b5b57611c94565b60016004811115611b6f57611b6e613394565b5b816004811115611b8257611b81613394565b5b1415611bc3576040517f08c379a0000000000000000000000000000000000000000000000000000000008152600401611bba9061340f565b60405180910390fd5b60026004811115611bd757611bd6613394565b5b816004811115611bea57611be9613394565b5b1415611c2b576040517f08c379a0000000000000000000000000000000000000000000000000000000008152600401611c229061347b565b60405180910390fd5b60036004811115611c3f57611c3e613394565b5b816004811115611c5257611c51613394565b5b1415611c93576040517f08c379a0000000000000000000000000000000000000000000000000000000008152600401611c8a9061350d565b60405180910390fd5b5b50565b6000819050919050565b6000819050919050565b611cb4816118e3565b611cf3576040517f08c379a0000000000000000000000000000000000000000000000000000000008152600401611cea9061359f565b60405180910390fd5b80611d207f360894a13ba1a3210667c828492db98dca3e2076cc3735a920a3ca505d382bbc60001b611c97565b60000160006101000a81548173ffffffffffffffffffffffffffffffffffffffff021916908373ffffffffffffffffffffffffffffffffffffffff16021790555050565b611d6d83611e73565b600082511180611d7a5750805b15611d8b57611d898383611ec2565b505b505050565b6000807f7fffffffffffffffffffffffffffffff5d576e7357a4501ddfe92f46681b20a08360001c1115611dcb576000600391509150611e6a565b600060018787878760405160008152602001604052604051611df094939291906135ce565b6020604051602081039080840390855afa158015611e12573d6000803e3d6000fd5b505050602060405103519050600073ffffffffffffffffffffffffffffffffffffffff168173ffffffffffffffffffffffffffffffffffffffff161415611e6157600060019250925050611e6a565b80600092509250505b94509492505050565b611e7c81611cab565b8073ffffffffffffffffffffffffffffffffffffffff167fbc7cd75a20ee27fd9adebab32041f755214dbc6bffa90cc0225b39da2e5c2d3b60405160405180910390a250565b6060611ee7838360405180606001604052806027815260200161368060279139611eef565b905092915050565b60606000808573ffffffffffffffffffffffffffffffffffffffff1685604051611f19919061310d565b600060405180830381855af49150503d8060008114611f54576040519150601f19603f3d011682016040523d82523d6000602084013e611f59565b606091505b5091509150611f6a86838387611f75565b925050509392505050565b60608315611fd857600083511415611fd057611f90856118e3565b611fcf576040517f08c379a0000000000000000000000000000000000000000000000000000000008152600401611fc69061365f565b60405180910390fd5b5b829050611fe3565b611fe28383611feb565b5b949350505050565b600082511115611ffe5781518083602001fd5b806040517f08c379a00000000000000000000000000000000000000000000000000000000081526004016120329190612f29565b60405180910390fd5b6000604051905090565b600080fd5b600080fd5b600080fd5b6000610160828403121561206b5761206a61204f565b5b81905092915050565b6000819050919050565b61208781612074565b811461209257600080fd5b50565b6000813590506120a48161207e565b92915050565b600073ffffffffffffffffffffffffffffffffffffffff82169050919050565b60006120d5826120aa565b9050919050565b6120e5816120ca565b81146120f057600080fd5b50565b600081359050612102816120dc565b92915050565b6000819050919050565b61211b81612108565b811461212657600080fd5b50565b60008135905061213881612112565b92915050565b6000806000806080858703121561215857612157612045565b5b600085013567ffffffffffffffff8111156121765761217561204a565b5b61218287828801612054565b945050602061219387828801612095565b93505060406121a4878288016120f3565b92505060606121b587828801612129565b91505092959194509250565b6121ca81612108565b82525050565b60006020820190506121e560008301846121c1565b92915050565b600080fd5b600080fd5b600080fd5b60008083601f8401126122105761220f6121eb565b5b8235905067ffffffffffffffff81111561222d5761222c6121f0565b5b602083019150836020820283011115612249576122486121f5565b5b9250929050565b60008083601f840112612266576122656121eb565b5b8235905067ffffffffffffffff811115612283576122826121f0565b5b60208301915083602082028301111561229f5761229e6121f5565b5b9250929050565b600080600080604085870312156122c0576122bf612045565b5b600085013567ffffffffffffffff8111156122de576122dd61204a565b5b6122ea878288016121fa565b9450945050602085013567ffffffffffffffff81111561230d5761230c61204a565b5b61231987828801612250565b925092505092959194509250565b600080fd5b6000601f19601f8301169050919050565b7f4e487b7100000000000000000000000000000000000000000000000000000000600052604160045260246000fd5b6123758261232c565b810181811067ffffffffffffffff821117156123945761239361233d565b5b80604052505050565b60006123a761203b565b90506123b3828261236c565b919050565b600067ffffffffffffffff8211156123d3576123d261233d565b5b6123dc8261232c565b9050602081019050919050565b82818337600083830152505050565b600061240b612406846123b8565b61239d565b90508281526020810184848401111561242757612426612327565b5b6124328482856123e9565b509392505050565b600082601f83011261244f5761244e6121eb565b5b813561245f8482602086016123f8565b91505092915050565b6000806040838503121561247f5761247e612045565b5b600083013567ffffffffffffffff81111561249d5761249c61204a565b5b6124a98582860161243a565b92505060206124ba85828601612095565b9150509250929050565b6000602082840312156124da576124d9612045565b5b60006124e8848285016120f3565b91505092915050565b6000806040838503121561250857612507612045565b5b6000612516858286016120f3565b9250506020612527858286016120f3565b9150509250929050565b600061253c826120aa565b9050919050565b61254c81612531565b811461255757600080fd5b50565b60008135905061256981612543565b92915050565b6000806040838503121561258657612585612045565b5b60006125948582860161255a565b92505060206125a585828601612129565b9150509250929050565b600080604083850312156125c6576125c5612045565b5b60006125d4858286016120f3565b925050602083013567ffffffffffffffff8111156125f5576125f461204a565b5b6126018582860161243a565b9150509250929050565b61261481612074565b82525050565b600060208201905061262f600083018461260b565b92915050565b61263e816120ca565b82525050565b60006020820190506126596000830184612635565b92915050565b6000819050919050565b600061268461267f61267a846120aa565b61265f565b6120aa565b9050919050565b600061269682612669565b9050919050565b60006126a88261268b565b9050919050565b6126b88161269d565b82525050565b60006020820190506126d360008301846126af565b92915050565b60008083601f8401126126ef576126ee6121eb565b5b8235905067ffffffffffffffff81111561270c5761270b6121f0565b5b602083019150836001820283011115612728576127276121f5565b5b9250929050565b6000806000806060858703121561274957612748612045565b5b6000612757878288016120f3565b945050602061276887828801612129565b935050604085013567ffffffffffffffff8111156127895761278861204a565b5b612795878288016126d9565b925092505092959194509250565b600080604083850312156127ba576127b9612045565b5b600083013567ffffffffffffffff8111156127d8576127d761204a565b5b6127e48582860161243a565b925050602083013567ffffffffffffffff8111156128055761280461204a565b5b6128118582860161243a565b9150509250929050565b600081519050919050565b600082825260208201905092915050565b60005b8381101561285557808201518184015260208101905061283a565b83811115612864576000848401525b50505050565b60006128758261281b565b61287f8185612826565b935061288f818560208601612837565b6128988161232c565b840191505092915050565b600060208201905081810360008301526128bd818461286a565b905092915050565b600080fd5b600080fd5b600080fd5b600080833560016020038436030381126128f1576128f06128c5565b5b80840192508235915067ffffffffffffffff821115612913576129126128ca565b5b60208301925060018202360383131561292f5761292e6128cf565b5b509250929050565b600082825260208201905092915050565b7f77726f6e67206172726179206c656e6774687300000000000000000000000000600082015250565b600061297e601383612937565b915061298982612948565b602082019050919050565b600060208201905081810360008301526129ad81612971565b9050919050565b7f4e487b7100000000000000000000000000000000000000000000000000000000600052603260045260246000fd5b7f4e487b7100000000000000000000000000000000000000000000000000000000600052601160045260246000fd5b6000612a1d82612108565b91507fffffffffffffffffffffffffffffffffffffffffffffffffffffffffffffffff821415612a5057612a4f6129e3565b5b600182019050919050565b6000612a6e612a69846123b8565b61239d565b905082815260208101848484011115612a8a57612a89612327565b5b612a95848285612837565b509392505050565b600082601f830112612ab257612ab16121eb565b5b8151612ac2848260208601612a5b565b91505092915050565b60008060408385031215612ae257612ae1612045565b5b600083015167ffffffffffffffff811115612b0057612aff61204a565b5b612b0c85828601612a9d565b925050602083015167ffffffffffffffff811115612b2d57612b2c61204a565b5b612b3985828601612a9d565b9150509250929050565b7f46756e6374696f6e206d7573742062652063616c6c6564207468726f7567682060008201527f64656c656761746563616c6c0000000000000000000000000000000000000000602082015250565b6000612b9f602c83612937565b9150612baa82612b43565b604082019050919050565b60006020820190508181036000830152612bce81612b92565b9050919050565b7f46756e6374696f6e206d7573742062652063616c6c6564207468726f7567682060008201527f6163746976652070726f78790000000000000000000000000000000000000000602082015250565b6000612c31602c83612937565b9150612c3c82612bd5565b604082019050919050565b60006020820190508181036000830152612c6081612c24565b9050919050565b7f496e697469616c697a61626c653a20636f6e747261637420697320616c72656160008201527f647920696e697469616c697a6564000000000000000000000000000000000000602082015250565b6000612cc3602e83612937565b9150612cce82612c67565b604082019050919050565b60006020820190508181036000830152612cf281612cb6565b9050919050565b6000819050919050565b600060ff82169050919050565b6000612d2b612d26612d2184612cf9565b61265f565b612d03565b9050919050565b612d3b81612d10565b82525050565b6000602082019050612d566000830184612d32565b92915050565b600081905092915050565b50565b6000612d77600083612d5c565b9150612d8282612d67565b600082019050919050565b6000612d9882612d6a565b9150819050919050565b612dab81612531565b82525050565b6000604082019050612dc66000830185612da2565b612dd360208301846121c1565b9392505050565b7f555550535570677261646561626c653a206d757374206e6f742062652063616c60008201527f6c6564207468726f7567682064656c656761746563616c6c0000000000000000602082015250565b6000612e36603883612937565b9150612e4182612dda565b604082019050919050565b60006020820190508181036000830152612e6581612e29565b9050919050565b600081519050612e7b81612112565b92915050565b600060208284031215612e9757612e96612045565b5b6000612ea584828501612e6c565b91505092915050565b60006040820190508181036000830152612ec8818561286a565b90508181036020830152612edc818461286a565b90509392505050565b600081519050919050565b6000612efb82612ee5565b612f058185612937565b9350612f15818560208601612837565b612f1e8161232c565b840191505092915050565b60006020820190508181036000830152612f438184612ef0565b905092915050565b7f6163636f756e743a206e6f742066726f6d20456e747279506f696e7400000000600082015250565b6000612f81601c83612937565b9150612f8c82612f4b565b602082019050919050565b60006020820190508181036000830152612fb081612f74565b9050919050565b60006bffffffffffffffffffffffff82169050919050565b6000612fda82612fb7565b91506bffffffffffffffffffffffff821415612ff957612ff86129e3565b5b600182019050919050565b7f6163636f756e743a20696e76616c6964206e6f6e636500000000000000000000600082015250565b600061303a601683612937565b915061304582613004565b602082019050919050565b600060208201905081810360008301526130698161302d565b9050919050565b7f6163636f756e743a206e6f74204f776e6572206f7220456e747279506f696e74600082015250565b60006130a6602083612937565b91506130b182613070565b602082019050919050565b600060208201905081810360008301526130d581613099565b9050919050565b60006130e78261281b565b6130f18185612d5c565b9350613101818560208601612837565b80840191505092915050565b600061311982846130dc565b915081905092915050565b600081905092915050565b7f19457468657265756d205369676e6564204d6573736167653a0a333200000000600082015250565b6000613165601c83613124565b91506131708261312f565b601c82019050919050565b6000819050919050565b61319661319182612074565b61317b565b82525050565b60006131a782613158565b91506131b38284613185565b60208201915081905092915050565b6000815190506131d18161207e565b92915050565b6000602082840312156131ed576131ec612045565b5b60006131fb848285016131c2565b91505092915050565b7f45524331393637557067726164653a206e657720696d706c656d656e7461746960008201527f6f6e206973206e6f742055555053000000000000000000000000000000000000602082015250565b6000613260602e83612937565b915061326b82613204565b604082019050919050565b6000602082019050818103600083015261328f81613253565b9050919050565b7f45524331393637557067726164653a20756e737570706f727465642070726f7860008201527f6961626c65555549440000000000000000000000000000000000000000000000602082015250565b60006132f2602983612937565b91506132fd82613296565b604082019050919050565b60006020820190508181036000830152613321816132e5565b9050919050565b7f6f6e6c79206f776e657200000000000000000000000000000000000000000000600082015250565b600061335e600a83612937565b915061336982613328565b602082019050919050565b6000602082019050818103600083015261338d81613351565b9050919050565b7f4e487b7100000000000000000000000000000000000000000000000000000000600052602160045260246000fd5b7f45434453413a20696e76616c6964207369676e61747572650000000000000000600082015250565b60006133f9601883612937565b9150613404826133c3565b602082019050919050565b60006020820190508181036000830152613428816133ec565b9050919050565b7f45434453413a20696e76616c6964207369676e6174757265206c656e67746800600082015250565b6000613465601f83612937565b91506134708261342f565b602082019050919050565b6000602082019050818103600083015261349481613458565b9050919050565b7f45434453413a20696e76616c6964207369676e6174757265202773272076616c60008201527f7565000000000000000000000000000000000000000000000000000000000000602082015250565b60006134f7602283612937565b91506135028261349b565b604082019050919050565b60006020820190508181036000830152613526816134ea565b9050919050565b7f455243313936373a206e657720696d706c656d656e746174696f6e206973206e60008201527f6f74206120636f6e747261637400000000000000000000000000000000000000602082015250565b6000613589602d83612937565b91506135948261352d565b604082019050919050565b600060208201905081810360008301526135b88161357c565b9050919050565b6135c881612d03565b82525050565b60006080820190506135e3600083018761260b565b6135f060208301866135bf565b6135fd604083018561260b565b61360a606083018461260b565b95945050505050565b7f416464726573733a2063616c6c20746f206e6f6e2d636f6e7472616374000000600082015250565b6000613649601d83612937565b915061365482613613565b602082019050919050565b600060208201905081810360008301526136788161363c565b905091905056fe416464726573733a206c6f772d6c6576656c2064656c65676174652063616c6c206661696c6564a26469706673582212202018299462546c142cfb9dc6168d766ad8e7e9a0be0f8b3641cba2a90434066e64736f6c634300080c0033",
  "devdoc": {
    "kind": "dev",
    "methods": {},
    "version": 1
  },
  "userdoc": {
    "kind": "user",
    "methods": {
      "createAccount(address,address,uint256)": {
        "notice": "create an account, and return its address. returns the address even if the account is already deployed. Note that during UserOperation execution, this method is called only if the account is not deployed. This method returns an existing account address so that entryPoint.getSenderAddress() would work even after account creation"
      },
      "getAddress(address,address,uint256)": {
        "notice": "calculate the counterfactual address of this account as it would be returned by createAccount()"
      }
    },
    "version": 1
  },
  "storageLayout": {
    "storage": [],
    "types": null
  }
}